:1000000039C059C045C045C043C042C041C040C0CE
:100010003FC03EC01808000000002B020808180866
:100020001200B9000909000000004A000D0D00008F
:1000300000006F0018100000000072011810080086
:100040001200B9000C04000000004A000D05000079
:1000500000006F00050505004A00000000000000D8
:10006000000000001C0C191101004A0014041111B9
:100070000100000011241FBECFE9CDBF20E0A0E6A3
:10008000B0E001C01D92A436B207E1F752D069C1B9
:10009000B7CF8F938FB78F939F938091620090918A
:1000A0006300019690936300809362009F918F910B
:1000B0008FBF8F9118951F921FB61F9211248F9397
:1000C0008BB78F7B8BBF8AB78F7B8ABF8091600095
:1000D0001092630010926200109261008F7383602F
:1000E000809360008F911F901FBE1F90189517BAC4
:1000F00018BA90E023E0880F991F2A95E1F721E0D4
:10010000E62FE2279C012E0F311D2E0F311DF90124
:10011000EC5EFF4FE491ED7FE7BBFC01611531F030
:10012000EB5EFF4FE491E260E8BB0895E95EFF4FAC
:10013000F9CF85B7877E85BF85B7806285BF85E0AB
:1001400083BF89B7826089BF1092630010926200FA
:10015000809160008C7F10926100846280936000C7
:1001600078941AE040E2F42E00E1809162009091D0
:10017000630097FF19C080916200909163008F5FC8
:100180009F4790936300809362002115310529F009
:100190002F5F3F4711F421E030E0209729F0CF5F37
:1001A000DF4711F4C1E0D0E0B1990FC08091600049
:1001B000909161009F5F90936100953030F095328F
:1001C00008F059C080648093600021153105F1F07A
:1001D000809162009091630028173907C8F46091FC
:1001E00060006F256093600065FB662760F9812FD2
:1001F0007EDFE12FF0E033E0EE0FFF1F3A95E1F7ED
:10020000E85EFF4F859195910097B9F520E030E0C9
:10021000209781F08091620090916300C817D90700
:1002200048F48091600085FF05C01F5F17708460EF
:100230008093600090916000892F8370823009F470
:1002400073C0833009F1813009F469C08091610085
:10025000811599F197FF05C09D7F9560909360008F
:1002600019E0B19B2AC096FF23C0902794FB112769
:1002700013F994601DC0806CA6CF2091620030916C
:100280006300280F391FC4CF85B7877E85BF909143
:10029000600097FF08C0193031F494FB112713F95F
:1002A000946090936000B19B08C097FF35C09C7F1D
:1002B000109261009F73909360008091600082FFB4
:1002C00029C08B7F80628093600061E0812F0FDF07
:1002D000812F90E023E0880F991F2A95E1F7FC0118
:1002E000E85EFF4F259135912115310531F04091A0
:1002F000620050916300240F351FFC01E65EFF4F42
:10030000C591D591209731F0809162009091630062
:10031000C80FD91F889529CF9E7F9260C9CFB19B06
:10032000CCCF9E7F9260C7CFB19909C085B7877E39
:1003300085BF80916000836080936000BECF109283
:1003400061009F7394609093600085B7877E8061A1
:1003500085BF8BB780648BBF8AB78F7B8ABF19E05C
:06036000ACCFF894FFCFC2
:00000001FF
