:1000000031C03EC03DC03DC03BC03AC039C038C021
:1000100037C036C01808000000002B020808180876
:100020001200B9000909000000004A000D0D00008F
:1000300000006F0018100000000072011810080086
:100040001200B9000C04000000004A000D05000079
:1000500000006F00050505004A0000001C0C191186
:1000600001004A0011241FBECFE9CDBF20E0A0E669
:10007000B0E001C01D92A436B207E1F736D0FFC050
:10008000BFCF8F938FB78F939F9380916200909192
:100090006300019690936300809362009F918F911B
:1000A0008FBF8F91189517BA18BA90E023E0880F88
:1000B000991F2A95E1F721E0E62FE2279C012E0FF8
:1000C000311D2E0F311DF901EC5EFF4FE491ED7FE4
:1000D000E7BBFC01611531F0EB5EFF4FE491E2609C
:1000E000E8BB0895E95EFF4FF9CF85B7877E85BFEE
:1000F00085B7806285BF85E083BF89B7826089BF8D
:100100001092630010926200809160001092610072
:10011000846280936000789419E0C0E0D0E09E0192
:1001200000E2809162009091630097FF19C0809176
:100130006200909163008F5F9F479093630080936C
:1001400062002115310529F02F5F3F4711F421E0AE
:1001500030E0209729F0CF5FDF4711F4C1E0D0E015
:10016000B1990CC090916000809161008F5F809385
:100170006100853018F0906490936000211531057E
:10018000F9F0809162009091630028173907D0F44C
:100190006091600060276093600065FB662760F9EE
:1001A000812F81DFE12FF0E093E0EE0FFF1F9A95A2
:1001B000E1F7E85EFF4F85919591009709F058C0EF
:1001C00020E030E0209781F0809162009091630000
:1001D000C817D90748F48091600085FF05C01F5FEC
:1001E000177084608093600080916100811589F0B0
:1001F000B19B0FC08091600086FF06C090E1892707
:1002000084FB112713F98460109261008F7B809327
:1002100060008091600082FF29C08B7F80628093A4
:10022000600061E0812F3FDF412F50E083E0440F09
:10023000551F8A95E1F7FA01E85EFF4F2591359148
:100240002115310531F08091620090916300280FF3
:10025000391FFA01E65EFF4FC591D591209731F025
:100260008091620090916300C80FD91F889559CF83
:100270002091620030916300280F391FA3CFF894BA
:02028000FFCFAE
:00000001FF
